{
  "contractName": "VehicleDetails",
  "abi": [
    {
      "anonymous": false,
      "inputs": [
        {
          "indexed": false,
          "internalType": "uint256",
          "name": "vehicleId",
          "type": "uint256"
        },
        {
          "indexed": false,
          "internalType": "uint256",
          "name": "timestamp",
          "type": "uint256"
        },
        {
          "indexed": false,
          "internalType": "string",
          "name": "ownerName",
          "type": "string"
        },
        {
          "indexed": false,
          "internalType": "string",
          "name": "licensePlate",
          "type": "string"
        },
        {
          "indexed": false,
          "internalType": "string",
          "name": "make",
          "type": "string"
        },
        {
          "indexed": false,
          "internalType": "string",
          "name": "model",
          "type": "string"
        },
        {
          "indexed": false,
          "internalType": "uint256",
          "name": "year",
          "type": "uint256"
        },
        {
          "indexed": false,
          "internalType": "string",
          "name": "color",
          "type": "string"
        }
      ],
      "name": "VehicleDetails__AddVehicle",
      "type": "event"
    },
    {
      "anonymous": false,
      "inputs": [
        {
          "indexed": false,
          "internalType": "uint256",
          "name": "vehicleId",
          "type": "uint256"
        },
        {
          "indexed": false,
          "internalType": "uint256",
          "name": "timestamp",
          "type": "uint256"
        },
        {
          "indexed": false,
          "internalType": "string",
          "name": "ownerName",
          "type": "string"
        },
        {
          "indexed": false,
          "internalType": "string",
          "name": "licensePlate",
          "type": "string"
        },
        {
          "indexed": false,
          "internalType": "string",
          "name": "make",
          "type": "string"
        },
        {
          "indexed": false,
          "internalType": "string",
          "name": "model",
          "type": "string"
        },
        {
          "indexed": false,
          "internalType": "uint256",
          "name": "year",
          "type": "uint256"
        },
        {
          "indexed": false,
          "internalType": "string",
          "name": "color",
          "type": "string"
        }
      ],
      "name": "VehicleDetails__DeleteVehicle",
      "type": "event"
    },
    {
      "inputs": [
        {
          "internalType": "uint256",
          "name": "",
          "type": "uint256"
        }
      ],
      "name": "isDeleted",
      "outputs": [
        {
          "internalType": "bool",
          "name": "",
          "type": "bool"
        }
      ],
      "stateMutability": "view",
      "type": "function",
      "constant": true
    },
    {
      "inputs": [],
      "name": "vehicleId",
      "outputs": [
        {
          "internalType": "uint256",
          "name": "",
          "type": "uint256"
        }
      ],
      "stateMutability": "view",
      "type": "function",
      "constant": true
    },
    {
      "inputs": [
        {
          "internalType": "string",
          "name": "_ownerName",
          "type": "string"
        },
        {
          "internalType": "string",
          "name": "_licensePlate",
          "type": "string"
        },
        {
          "internalType": "string",
          "name": "_make",
          "type": "string"
        },
        {
          "internalType": "string",
          "name": "_model",
          "type": "string"
        },
        {
          "internalType": "uint256",
          "name": "_year",
          "type": "uint256"
        },
        {
          "internalType": "string",
          "name": "_color",
          "type": "string"
        }
      ],
      "name": "addVehicle",
      "outputs": [],
      "stateMutability": "nonpayable",
      "type": "function"
    },
    {
      "inputs": [
        {
          "internalType": "uint256",
          "name": "_vehicleId",
          "type": "uint256"
        }
      ],
      "name": "deleteVehicle",
      "outputs": [],
      "stateMutability": "nonpayable",
      "type": "function"
    },
    {
      "inputs": [
        {
          "internalType": "uint256",
          "name": "_vehicleId",
          "type": "uint256"
        }
      ],
      "name": "getVehicle",
      "outputs": [
        {
          "internalType": "uint256",
          "name": "",
          "type": "uint256"
        },
        {
          "internalType": "string",
          "name": "",
          "type": "string"
        },
        {
          "internalType": "string",
          "name": "",
          "type": "string"
        },
        {
          "internalType": "string",
          "name": "",
          "type": "string"
        },
        {
          "internalType": "string",
          "name": "",
          "type": "string"
        },
        {
          "internalType": "uint256",
          "name": "",
          "type": "uint256"
        },
        {
          "internalType": "string",
          "name": "",
          "type": "string"
        }
      ],
      "stateMutability": "view",
      "type": "function",
      "constant": true
    },
    {
      "inputs": [],
      "name": "getVehicleId",
      "outputs": [
        {
          "internalType": "uint256",
          "name": "",
          "type": "uint256"
        }
      ],
      "stateMutability": "view",
      "type": "function",
      "constant": true
    },
    {
      "inputs": [
        {
          "internalType": "uint256",
          "name": "_vehicleId",
          "type": "uint256"
        }
      ],
      "name": "getTimeStamp",
      "outputs": [
        {
          "internalType": "uint256",
          "name": "",
          "type": "uint256"
        }
      ],
      "stateMutability": "view",
      "type": "function",
      "constant": true
    },
    {
      "inputs": [
        {
          "internalType": "uint256",
          "name": "_vehicleId",
          "type": "uint256"
        }
      ],
      "name": "getOwnerName",
      "outputs": [
        {
          "internalType": "string",
          "name": "",
          "type": "string"
        }
      ],
      "stateMutability": "view",
      "type": "function",
      "constant": true
    },
    {
      "inputs": [
        {
          "internalType": "uint256",
          "name": "_vehicleId",
          "type": "uint256"
        }
      ],
      "name": "getLicensePlate",
      "outputs": [
        {
          "internalType": "string",
          "name": "",
          "type": "string"
        }
      ],
      "stateMutability": "view",
      "type": "function",
      "constant": true
    },
    {
      "inputs": [
        {
          "internalType": "uint256",
          "name": "_vehicleId",
          "type": "uint256"
        }
      ],
      "name": "getMake",
      "outputs": [
        {
          "internalType": "string",
          "name": "",
          "type": "string"
        }
      ],
      "stateMutability": "view",
      "type": "function",
      "constant": true
    },
    {
      "inputs": [
        {
          "internalType": "uint256",
          "name": "_vehicleId",
          "type": "uint256"
        }
      ],
      "name": "getModel",
      "outputs": [
        {
          "internalType": "string",
          "name": "",
          "type": "string"
        }
      ],
      "stateMutability": "view",
      "type": "function",
      "constant": true
    },
    {
      "inputs": [
        {
          "internalType": "uint256",
          "name": "_vehicleId",
          "type": "uint256"
        }
      ],
      "name": "getYear",
      "outputs": [
        {
          "internalType": "uint256",
          "name": "",
          "type": "uint256"
        }
      ],
      "stateMutability": "view",
      "type": "function",
      "constant": true
    },
    {
      "inputs": [
        {
          "internalType": "uint256",
          "name": "_vehicleId",
          "type": "uint256"
        }
      ],
      "name": "getColor",
      "outputs": [
        {
          "internalType": "string",
          "name": "",
          "type": "string"
        }
      ],
      "stateMutability": "view",
      "type": "function",
      "constant": true
    },
    {
      "inputs": [
        {
          "internalType": "uint256",
          "name": "_vehicleId",
          "type": "uint256"
        }
      ],
      "name": "getDeleted",
      "outputs": [
        {
          "internalType": "bool",
          "name": "",
          "type": "bool"
        }
      ],
      "stateMutability": "view",
      "type": "function",
      "constant": true
    }
  ],
  "bytecode": "0x608060405234801561001057600080fd5b506114aa806100206000396000f3fe608060405234801561001057600080fd5b50600436106100ea5760003560e01c806392d663131161008c578063d1a1048911610066578063d1a10489146102a7578063df7ebb7b146102c5578063e8963d12146102fb578063fcb1997114610319576100ea565b806392d663131461021757806394182c3614610247578063ab59694614610277576100ea565b80636d361694116100c85780636d361694146101575780637a4b70751461018757806380057b9a146101b75780638230c4fb146101e7576100ea565b80633a4a2c0b146100ef5780634fa8ebd61461010b5780636747f39114610127575b600080fd5b61010960048036038101906101049190610ece565b610349565b005b61012560048036038101906101209190610dcd565b61044d565b005b610141600480360381019061013c9190610ece565b6105b5565b60405161014e919061106b565b60405180910390f35b610171600480360381019061016c9190610ece565b6105d5565b60405161017e9190611029565b60405180910390f35b6101a1600480360381019061019c9190610ece565b61067d565b6040516101ae9190611029565b60405180910390f35b6101d160048036038101906101cc9190610ece565b610725565b6040516101de9190611029565b60405180910390f35b61020160048036038101906101fc9190610ece565b6107cd565b60405161020e9190611029565b60405180910390f35b610231600480360381019061022c9190610ece565b610875565b60405161023e919061106b565b60405180910390f35b610261600480360381019061025c9190610ece565b610895565b60405161026e919061100e565b60405180910390f35b610291600480360381019061028c9190610ece565b6108b5565b60405161029e919061100e565b60405180910390f35b6102af6108df565b6040516102bc919061106b565b60405180910390f35b6102df60048036038101906102da9190610ece565b6108e8565b6040516102f29796959493929190611086565b60405180910390f35b610303610bff565b604051610310919061106b565b60405180910390f35b610333600480360381019061032e9190610ece565b610c05565b6040516103409190611029565b60405180910390f35b6002600082815260200190815260200160002060009054906101000a900460ff16156103aa576040517f08c379a00000000000000000000000000000000000000000000000000000000081526004016103a19061104b565b60405180910390fd5b60006001600083815260200190815260200160002090507fc06d5c243e106272841050fab9193cd502f3b02462a00496ee9c04fbbbf1c903816000015442836002018460030185600401866005018760060154886007016040516104159897969594939291906111b9565b60405180910390a160016002600084815260200190815260200160002060006101000a81548160ff0219169083151502179055505050565b60008081548092919061045f90611376565b91905055506040518061010001604052806000548152602001428152602001878152602001868152602001858152602001848152602001838152602001828152506001600080548152602001908152602001600020600082015181600001556020820151816001015560408201518160020190805190602001906104e4929190610cad565b506060820151816003019080519060200190610501929190610cad565b50608082015181600401908051906020019061051e929190610cad565b5060a082015181600501908051906020019061053b929190610cad565b5060c0820151816006015560e0820151816007019080519060200190610562929190610cad565b509050507f26249ad80dcacd563ea4c73a8de79c891de7394c8beb09c89d1b9bf2dcf62e76600054428888888888886040516105a5989796959493929190611118565b60405180910390a1505050505050565b600060016000838152602001908152602001600020600101549050919050565b60606001600083815260200190815260200160002060050180546105f890611344565b80601f016020809104026020016040519081016040528092919081815260200182805461062490611344565b80156106715780601f1061064657610100808354040283529160200191610671565b820191906000526020600020905b81548152906001019060200180831161065457829003601f168201915b50505050509050919050565b60606001600083815260200190815260200160002060040180546106a090611344565b80601f01602080910402602001604051908101604052809291908181526020018280546106cc90611344565b80156107195780601f106106ee57610100808354040283529160200191610719565b820191906000526020600020905b8154815290600101906020018083116106fc57829003601f168201915b50505050509050919050565b606060016000838152602001908152602001600020600701805461074890611344565b80601f016020809104026020016040519081016040528092919081815260200182805461077490611344565b80156107c15780601f10610796576101008083540402835291602001916107c1565b820191906000526020600020905b8154815290600101906020018083116107a457829003601f168201915b50505050509050919050565b60606001600083815260200190815260200160002060020180546107f090611344565b80601f016020809104026020016040519081016040528092919081815260200182805461081c90611344565b80156108695780601f1061083e57610100808354040283529160200191610869565b820191906000526020600020905b81548152906001019060200180831161084c57829003601f168201915b50505050509050919050565b600060016000838152602001908152602001600020600601549050919050565b60026020528060005260406000206000915054906101000a900460ff1681565b60006002600083815260200190815260200160002060009054906101000a900460ff169050919050565b60008054905090565b6000606080606080600060606000600160008a8152602001908152602001600020905080600101548160020182600301836004018460050185600601548660070185805461093590611344565b80601f016020809104026020016040519081016040528092919081815260200182805461096190611344565b80156109ae5780601f10610983576101008083540402835291602001916109ae565b820191906000526020600020905b81548152906001019060200180831161099157829003601f168201915b505050505095508480546109c190611344565b80601f01602080910402602001604051908101604052809291908181526020018280546109ed90611344565b8015610a3a5780601f10610a0f57610100808354040283529160200191610a3a565b820191906000526020600020905b815481529060010190602001808311610a1d57829003601f168201915b50505050509450838054610a4d90611344565b80601f0160208091040260200160405190810160405280929190818152602001828054610a7990611344565b8015610ac65780601f10610a9b57610100808354040283529160200191610ac6565b820191906000526020600020905b815481529060010190602001808311610aa957829003601f168201915b50505050509350828054610ad990611344565b80601f0160208091040260200160405190810160405280929190818152602001828054610b0590611344565b8015610b525780601f10610b2757610100808354040283529160200191610b52565b820191906000526020600020905b815481529060010190602001808311610b3557829003601f168201915b50505050509250808054610b6590611344565b80601f0160208091040260200160405190810160405280929190818152602001828054610b9190611344565b8015610bde5780601f10610bb357610100808354040283529160200191610bde565b820191906000526020600020905b815481529060010190602001808311610bc157829003601f168201915b50505050509050975097509750975097509750975050919395979092949650565b60005481565b6060600160008381526020019081526020016000206003018054610c2890611344565b80601f0160208091040260200160405190810160405280929190818152602001828054610c5490611344565b8015610ca15780601f10610c7657610100808354040283529160200191610ca1565b820191906000526020600020905b815481529060010190602001808311610c8457829003601f168201915b50505050509050919050565b828054610cb990611344565b90600052602060002090601f016020900481019282610cdb5760008555610d22565b82601f10610cf457805160ff1916838001178555610d22565b82800160010185558215610d22579182015b82811115610d21578251825591602001919060010190610d06565b5b509050610d2f9190610d33565b5090565b5b80821115610d4c576000816000905550600101610d34565b5090565b6000610d63610d5e8461128b565b61125a565b905082815260208101848484011115610d7b57600080fd5b610d86848285611302565b509392505050565b600082601f830112610d9f57600080fd5b8135610daf848260208601610d50565b91505092915050565b600081359050610dc78161145d565b92915050565b60008060008060008060c08789031215610de657600080fd5b600087013567ffffffffffffffff811115610e0057600080fd5b610e0c89828a01610d8e565b965050602087013567ffffffffffffffff811115610e2957600080fd5b610e3589828a01610d8e565b955050604087013567ffffffffffffffff811115610e5257600080fd5b610e5e89828a01610d8e565b945050606087013567ffffffffffffffff811115610e7b57600080fd5b610e8789828a01610d8e565b9350506080610e9889828a01610db8565b92505060a087013567ffffffffffffffff811115610eb557600080fd5b610ec189828a01610d8e565b9150509295509295509295565b600060208284031215610ee057600080fd5b6000610eee84828501610db8565b91505092915050565b610f00816112ec565b82525050565b6000610f11826112d0565b610f1b81856112db565b9350610f2b818560208601611311565b610f348161144c565b840191505092915050565b60008154610f4c81611344565b610f5681866112db565b94506001821660008114610f715760018114610f8357610fb6565b60ff1983168652602086019350610fb6565b610f8c856112bb565b60005b83811015610fae57815481890152600182019150602081019050610f8f565b808801955050505b50505092915050565b6000610fcc601e836112db565b91507f5468652076656869636c6520697320616c72656164792064656c6574656400006000830152602082019050919050565b611008816112f8565b82525050565b60006020820190506110236000830184610ef7565b92915050565b600060208201905081810360008301526110438184610f06565b905092915050565b6000602082019050818103600083015261106481610fbf565b9050919050565b60006020820190506110806000830184610fff565b92915050565b600060e08201905061109b600083018a610fff565b81810360208301526110ad8189610f06565b905081810360408301526110c18188610f06565b905081810360608301526110d58187610f06565b905081810360808301526110e98186610f06565b90506110f860a0830185610fff565b81810360c083015261110a8184610f06565b905098975050505050505050565b60006101008201905061112e600083018b610fff565b61113b602083018a610fff565b818103604083015261114d8189610f06565b905081810360608301526111618188610f06565b905081810360808301526111758187610f06565b905081810360a08301526111898186610f06565b905061119860c0830185610fff565b81810360e08301526111aa8184610f06565b90509998505050505050505050565b6000610100820190506111cf600083018b610fff565b6111dc602083018a610fff565b81810360408301526111ee8189610f3f565b905081810360608301526112028188610f3f565b905081810360808301526112168187610f3f565b905081810360a083015261122a8186610f3f565b905061123960c0830185610fff565b81810360e083015261124b8184610f3f565b90509998505050505050505050565b6000604051905081810181811067ffffffffffffffff821117156112815761128061141d565b5b8060405250919050565b600067ffffffffffffffff8211156112a6576112a561141d565b5b601f19601f8301169050602081019050919050565b60008190508160005260206000209050919050565b600081519050919050565b600082825260208201905092915050565b60008115159050919050565b6000819050919050565b82818337600083830152505050565b60005b8381101561132f578082015181840152602081019050611314565b8381111561133e576000848401525b50505050565b6000600282049050600182168061135c57607f821691505b602082108114156113705761136f6113ee565b5b50919050565b6000611381826112f8565b91507fffffffffffffffffffffffffffffffffffffffffffffffffffffffffffffffff8214156113b4576113b36113bf565b5b600182019050919050565b7f4e487b7100000000000000000000000000000000000000000000000000000000600052601160045260246000fd5b7f4e487b7100000000000000000000000000000000000000000000000000000000600052602260045260246000fd5b7f4e487b7100000000000000000000000000000000000000000000000000000000600052604160045260246000fd5b6000601f19601f8301169050919050565b611466816112f8565b811461147157600080fd5b5056fea26469706673582212200506d6070dee22d620e8be7d0a4c185d1cff47d3fc644fbf6595b344e153435f64736f6c63430008000033",
  "immutableReferences": {},
  "source": "//SPDX-License-Identifier: MIT\r\npragma solidity ^0.8.0;\r\n\r\ncontract VehicleDetails {\r\n    uint public vehicleId;\r\n    mapping(uint => Vehicle) vehicles;\r\n    mapping(uint => bool) public isDeleted;\r\n\r\n    struct Vehicle {\r\n        uint vehicleId;\r\n        uint timestamp;\r\n        string ownerName;\r\n        string licensePlate;\r\n        string make;\r\n        string model;\r\n        uint year;\r\n        string color;\r\n    }\r\n\r\n    event VehicleDetails__AddVehicle(\r\n        uint vehicleId,\r\n        uint timestamp,\r\n        string ownerName,\r\n        string licensePlate,\r\n        string make,\r\n        string model,\r\n        uint year,\r\n        string color\r\n    );\r\n\r\n    event VehicleDetails__DeleteVehicle(\r\n        uint vehicleId,\r\n        uint timestamp,\r\n        string ownerName,\r\n        string licensePlate,\r\n        string make,\r\n        string model,\r\n        uint year,\r\n        string color\r\n    );\r\n\r\n    function addVehicle(\r\n        string memory _ownerName,\r\n        string memory _licensePlate,\r\n        string memory _make,\r\n        string memory _model,\r\n        uint _year,\r\n        string memory _color\r\n    ) public {\r\n        vehicleId++;\r\n        vehicles[vehicleId] = Vehicle(\r\n            vehicleId,\r\n            block.timestamp,\r\n            _ownerName,\r\n            _licensePlate,\r\n            _make,\r\n            _model,\r\n            _year,\r\n            _color\r\n        );\r\n\r\n        emit VehicleDetails__AddVehicle(\r\n            vehicleId,\r\n            block.timestamp,\r\n            _ownerName,\r\n            _licensePlate,\r\n            _make,\r\n            _model,\r\n            _year,\r\n            _color\r\n        );\r\n    }\r\n\r\n    function deleteVehicle(uint _vehicleId) public {\r\n        require(!isDeleted[_vehicleId], \"The vehicle is already deleted\");\r\n        Vehicle storage vehicle = vehicles[_vehicleId];\r\n\r\n        emit VehicleDetails__DeleteVehicle(\r\n            vehicle.vehicleId,\r\n            block.timestamp,\r\n            vehicle.ownerName,\r\n            vehicle.licensePlate,\r\n            vehicle.make,\r\n            vehicle.model,\r\n            vehicle.year,\r\n            vehicle.color\r\n        );\r\n\r\n        isDeleted[_vehicleId] = true;\r\n    }\r\n\r\n    function getVehicle(\r\n        uint _vehicleId\r\n    )\r\n        public\r\n        view\r\n        returns (\r\n            uint,            // timestamp\r\n            string memory,   // ownerName\r\n            string memory,   // licensePlate\r\n            string memory,   // make\r\n            string memory,   // model\r\n            uint,            // year\r\n            string memory    // color\r\n        )\r\n    {\r\n        Vehicle storage vehicle = vehicles[_vehicleId];\r\n        return (\r\n            vehicle.timestamp,\r\n            vehicle.ownerName,\r\n            vehicle.licensePlate,\r\n            vehicle.make,\r\n            vehicle.model,\r\n            vehicle.year,\r\n            vehicle.color\r\n        );\r\n    }\r\n\r\n    function getVehicleId() public view returns (uint) {\r\n        return vehicleId;\r\n    }\r\n\r\n    function getTimeStamp(uint _vehicleId) public view returns (uint) {\r\n        return vehicles[_vehicleId].timestamp;\r\n    }\r\n\r\n    function getOwnerName(uint _vehicleId) public view returns (string memory) {\r\n        return vehicles[_vehicleId].ownerName;\r\n    }\r\n\r\n    function getLicensePlate(uint _vehicleId) public view returns (string memory) {\r\n        return vehicles[_vehicleId].licensePlate;\r\n    }\r\n\r\n    function getMake(uint _vehicleId) public view returns (string memory) {\r\n        return vehicles[_vehicleId].make;\r\n    }\r\n\r\n    function getModel(uint _vehicleId) public view returns (string memory) {\r\n        return vehicles[_vehicleId].model;\r\n    }\r\n\r\n    function getYear(uint _vehicleId) public view returns (uint) {\r\n        return vehicles[_vehicleId].year;\r\n    }\r\n\r\n    function getColor(uint _vehicleId) public view returns (string memory) {\r\n        return vehicles[_vehicleId].color;\r\n    }\r\n\r\n    function getDeleted(uint _vehicleId) public view returns (bool) {\r\n        return isDeleted[_vehicleId];\r\n    }\r\n}\r\n",
  "sourcePath": "C:\\Users\\Asus\\Desktop\\vehicle-blockchain\\contracts\\VehicleDetails.sol",
  "compiler": {
    "name": "solc",
    "version": "0.8.0+commit.c7dfd78e.Emscripten.clang"
  },
  "schemaVersion": "3.4.16",
  "updatedAt": "2024-12-30T04:09:25.996Z",
  "networkType": "ethereum",
  "devdoc": {
    "kind": "dev",
    "methods": {},
    "version": 1
  },
  "userdoc": {
    "kind": "user",
    "methods": {},
    "version": 1
  }
}