{
  "contractName": "VehicleInsuranceRecords",
  "abi": [
    {
      "anonymous": false,
      "inputs": [
        {
          "indexed": false,
          "internalType": "uint256",
          "name": "recordId",
          "type": "uint256"
        },
        {
          "indexed": false,
          "internalType": "uint256",
          "name": "timestamp",
          "type": "uint256"
        },
        {
          "indexed": false,
          "internalType": "string",
          "name": "ownerName",
          "type": "string"
        },
        {
          "indexed": false,
          "internalType": "string",
          "name": "licensePlate",
          "type": "string"
        },
        {
          "indexed": false,
          "internalType": "string",
          "name": "vehicleType",
          "type": "string"
        },
        {
          "indexed": false,
          "internalType": "uint256",
          "name": "insuredAmount",
          "type": "uint256"
        },
        {
          "indexed": false,
          "internalType": "uint256",
          "name": "insuranceExpiryYear",
          "type": "uint256"
        },
        {
          "indexed": false,
          "internalType": "string",
          "name": "claimStatus",
          "type": "string"
        }
      ],
      "name": "VehicleInsuranceRecords__AddRecord",
      "type": "event"
    },
    {
      "anonymous": false,
      "inputs": [
        {
          "indexed": false,
          "internalType": "uint256",
          "name": "recordId",
          "type": "uint256"
        },
        {
          "indexed": false,
          "internalType": "uint256",
          "name": "timestamp",
          "type": "uint256"
        },
        {
          "indexed": false,
          "internalType": "string",
          "name": "ownerName",
          "type": "string"
        },
        {
          "indexed": false,
          "internalType": "string",
          "name": "licensePlate",
          "type": "string"
        },
        {
          "indexed": false,
          "internalType": "string",
          "name": "vehicleType",
          "type": "string"
        },
        {
          "indexed": false,
          "internalType": "uint256",
          "name": "insuredAmount",
          "type": "uint256"
        },
        {
          "indexed": false,
          "internalType": "uint256",
          "name": "insuranceExpiryYear",
          "type": "uint256"
        },
        {
          "indexed": false,
          "internalType": "string",
          "name": "claimStatus",
          "type": "string"
        }
      ],
      "name": "VehicleInsuranceRecords__DeleteRecord",
      "type": "event"
    },
    {
      "inputs": [
        {
          "internalType": "uint256",
          "name": "",
          "type": "uint256"
        }
      ],
      "name": "isDeleted",
      "outputs": [
        {
          "internalType": "bool",
          "name": "",
          "type": "bool"
        }
      ],
      "stateMutability": "view",
      "type": "function",
      "constant": true
    },
    {
      "inputs": [],
      "name": "recordId",
      "outputs": [
        {
          "internalType": "uint256",
          "name": "",
          "type": "uint256"
        }
      ],
      "stateMutability": "view",
      "type": "function",
      "constant": true
    },
    {
      "inputs": [
        {
          "internalType": "string",
          "name": "_ownerName",
          "type": "string"
        },
        {
          "internalType": "string",
          "name": "_licensePlate",
          "type": "string"
        },
        {
          "internalType": "string",
          "name": "_vehicleType",
          "type": "string"
        },
        {
          "internalType": "uint256",
          "name": "_insuredAmount",
          "type": "uint256"
        },
        {
          "internalType": "uint256",
          "name": "_insuranceExpiryYear",
          "type": "uint256"
        },
        {
          "internalType": "string",
          "name": "_claimStatus",
          "type": "string"
        }
      ],
      "name": "addRecord",
      "outputs": [],
      "stateMutability": "nonpayable",
      "type": "function"
    },
    {
      "inputs": [
        {
          "internalType": "uint256",
          "name": "_recordId",
          "type": "uint256"
        }
      ],
      "name": "deleteRecord",
      "outputs": [],
      "stateMutability": "nonpayable",
      "type": "function"
    },
    {
      "inputs": [
        {
          "internalType": "uint256",
          "name": "_recordId",
          "type": "uint256"
        }
      ],
      "name": "getRecord",
      "outputs": [
        {
          "internalType": "uint256",
          "name": "",
          "type": "uint256"
        },
        {
          "internalType": "string",
          "name": "",
          "type": "string"
        },
        {
          "internalType": "string",
          "name": "",
          "type": "string"
        },
        {
          "internalType": "string",
          "name": "",
          "type": "string"
        },
        {
          "internalType": "uint256",
          "name": "",
          "type": "uint256"
        },
        {
          "internalType": "uint256",
          "name": "",
          "type": "uint256"
        },
        {
          "internalType": "string",
          "name": "",
          "type": "string"
        }
      ],
      "stateMutability": "view",
      "type": "function",
      "constant": true
    },
    {
      "inputs": [],
      "name": "getRecordId",
      "outputs": [
        {
          "internalType": "uint256",
          "name": "",
          "type": "uint256"
        }
      ],
      "stateMutability": "view",
      "type": "function",
      "constant": true
    },
    {
      "inputs": [
        {
          "internalType": "uint256",
          "name": "_recordId",
          "type": "uint256"
        }
      ],
      "name": "getTimeStamp",
      "outputs": [
        {
          "internalType": "uint256",
          "name": "",
          "type": "uint256"
        }
      ],
      "stateMutability": "view",
      "type": "function",
      "constant": true
    },
    {
      "inputs": [
        {
          "internalType": "uint256",
          "name": "_recordId",
          "type": "uint256"
        }
      ],
      "name": "getOwnerName",
      "outputs": [
        {
          "internalType": "string",
          "name": "",
          "type": "string"
        }
      ],
      "stateMutability": "view",
      "type": "function",
      "constant": true
    },
    {
      "inputs": [
        {
          "internalType": "uint256",
          "name": "_recordId",
          "type": "uint256"
        }
      ],
      "name": "getLicensePlate",
      "outputs": [
        {
          "internalType": "string",
          "name": "",
          "type": "string"
        }
      ],
      "stateMutability": "view",
      "type": "function",
      "constant": true
    },
    {
      "inputs": [
        {
          "internalType": "uint256",
          "name": "_recordId",
          "type": "uint256"
        }
      ],
      "name": "getVehicleType",
      "outputs": [
        {
          "internalType": "string",
          "name": "",
          "type": "string"
        }
      ],
      "stateMutability": "view",
      "type": "function",
      "constant": true
    },
    {
      "inputs": [
        {
          "internalType": "uint256",
          "name": "_recordId",
          "type": "uint256"
        }
      ],
      "name": "getInsuredAmount",
      "outputs": [
        {
          "internalType": "uint256",
          "name": "",
          "type": "uint256"
        }
      ],
      "stateMutability": "view",
      "type": "function",
      "constant": true
    },
    {
      "inputs": [
        {
          "internalType": "uint256",
          "name": "_recordId",
          "type": "uint256"
        }
      ],
      "name": "getInsuranceExpiryYear",
      "outputs": [
        {
          "internalType": "uint256",
          "name": "",
          "type": "uint256"
        }
      ],
      "stateMutability": "view",
      "type": "function",
      "constant": true
    },
    {
      "inputs": [
        {
          "internalType": "uint256",
          "name": "_recordId",
          "type": "uint256"
        }
      ],
      "name": "getClaimStatus",
      "outputs": [
        {
          "internalType": "string",
          "name": "",
          "type": "string"
        }
      ],
      "stateMutability": "view",
      "type": "function",
      "constant": true
    },
    {
      "inputs": [
        {
          "internalType": "uint256",
          "name": "_recordId",
          "type": "uint256"
        }
      ],
      "name": "getDeleted",
      "outputs": [
        {
          "internalType": "bool",
          "name": "",
          "type": "bool"
        }
      ],
      "stateMutability": "view",
      "type": "function",
      "constant": true
    }
  ],
  "bytecode": "0x608060405234801561001057600080fd5b50611358806100206000396000f3fe608060405234801561001057600080fd5b50600436106100ea5760003560e01c80638fe7d0bf1161008c57806399055dda1161006657806399055dda146102ad578063ab596946146102cb578063f7dfe22b146102fb578063fcb1997114610319576100ea565b80638fe7d0bf1461021d57806394182c361461024d57806396801e9e1461027d576100ea565b80635998f775116100c85780635998f775146101715780636747f391146101a15780638230c4fb146101d157806382a182ff14610201576100ea565b806303e9e609146100ef578063061f98111461012557806336dbd2f914610141575b600080fd5b61010960048036038101906101049190610d91565b610349565b60405161011c9796959493929190610f49565b60405180910390f35b61013f600480360381019061013a9190610d91565b6105d5565b005b61015b60048036038101906101569190610d91565b6106da565b6040516101689190610eec565b60405180910390f35b61018b60048036038101906101869190610d91565b610782565b6040516101989190610f2e565b60405180910390f35b6101bb60048036038101906101b69190610d91565b6107a2565b6040516101c89190610f2e565b60405180910390f35b6101eb60048036038101906101e69190610d91565b6107c2565b6040516101f89190610eec565b60405180910390f35b61021b60048036038101906102169190610ca8565b61086a565b005b61023760048036038101906102329190610d91565b6109bf565b6040516102449190610f2e565b60405180910390f35b61026760048036038101906102629190610d91565b6109df565b6040516102749190610ed1565b60405180910390f35b61029760048036038101906102929190610d91565b6109ff565b6040516102a49190610eec565b60405180910390f35b6102b5610aa7565b6040516102c29190610f2e565b60405180910390f35b6102e560048036038101906102e09190610d91565b610ab0565b6040516102f29190610ed1565b60405180910390f35b610303610ada565b6040516103109190610f2e565b60405180910390f35b610333600480360381019061032e9190610d91565b610ae0565b6040516103409190610eec565b60405180910390f35b6000606080606060008060606000600160008a8152602001908152602001600020905080600101548160020182600301836004018460050154856006015486600701858054610397906111f2565b80601f01602080910402602001604051908101604052809291908181526020018280546103c3906111f2565b80156104105780601f106103e557610100808354040283529160200191610410565b820191906000526020600020905b8154815290600101906020018083116103f357829003601f168201915b50505050509550848054610423906111f2565b80601f016020809104026020016040519081016040528092919081815260200182805461044f906111f2565b801561049c5780601f106104715761010080835404028352916020019161049c565b820191906000526020600020905b81548152906001019060200180831161047f57829003601f168201915b505050505094508380546104af906111f2565b80601f01602080910402602001604051908101604052809291908181526020018280546104db906111f2565b80156105285780601f106104fd57610100808354040283529160200191610528565b820191906000526020600020905b81548152906001019060200180831161050b57829003601f168201915b5050505050935080805461053b906111f2565b80601f0160208091040260200160405190810160405280929190818152602001828054610567906111f2565b80156105b45780601f10610589576101008083540402835291602001916105b4565b820191906000526020600020905b81548152906001019060200180831161059757829003601f168201915b50505050509050975097509750975097509750975050919395979092949650565b6002600082815260200190815260200160002060009054906101000a900460ff1615610636576040517f08c379a000000000000000000000000000000000000000000000000000000000815260040161062d90610f0e565b60405180910390fd5b60006001600083815260200190815260200160002090507fc5cef36dd9d7ab355399d90a60527995c51ed08b56faa2a35b1e443c670476db81600001544283600201846003018560040186600501548760060154886007016040516106a298979695949392919061106e565b60405180910390a160016002600084815260200190815260200160002060006101000a81548160ff0219169083151502179055505050565b60606001600083815260200190815260200160002060070180546106fd906111f2565b80601f0160208091040260200160405190810160405280929190818152602001828054610729906111f2565b80156107765780601f1061074b57610100808354040283529160200191610776565b820191906000526020600020905b81548152906001019060200180831161075957829003601f168201915b50505050509050919050565b600060016000838152602001908152602001600020600501549050919050565b600060016000838152602001908152602001600020600101549050919050565b60606001600083815260200190815260200160002060020180546107e5906111f2565b80601f0160208091040260200160405190810160405280929190818152602001828054610811906111f2565b801561085e5780601f106108335761010080835404028352916020019161085e565b820191906000526020600020905b81548152906001019060200180831161084157829003601f168201915b50505050509050919050565b60008081548092919061087c90611224565b9190505550604051806101000160405280600054815260200142815260200187815260200186815260200185815260200184815260200183815260200182815250600160008054815260200190815260200160002060008201518160000155602082015181600101556040820151816002019080519060200190610901929190610b88565b50606082015181600301908051906020019061091e929190610b88565b50608082015181600401908051906020019061093b929190610b88565b5060a0820151816005015560c0820151816006015560e082015181600701908051906020019061096c929190610b88565b509050507f2591877a93df4055b6601f057a7776f9f22ba0d4d30f36d7af76bf964535ee01600054428888888888886040516109af989796959493929190610fd4565b60405180910390a1505050505050565b600060016000838152602001908152602001600020600601549050919050565b60026020528060005260406000206000915054906101000a900460ff1681565b6060600160008381526020019081526020016000206004018054610a22906111f2565b80601f0160208091040260200160405190810160405280929190818152602001828054610a4e906111f2565b8015610a9b5780601f10610a7057610100808354040283529160200191610a9b565b820191906000526020600020905b815481529060010190602001808311610a7e57829003601f168201915b50505050509050919050565b60008054905090565b60006002600083815260200190815260200160002060009054906101000a900460ff169050919050565b60005481565b6060600160008381526020019081526020016000206003018054610b03906111f2565b80601f0160208091040260200160405190810160405280929190818152602001828054610b2f906111f2565b8015610b7c5780601f10610b5157610100808354040283529160200191610b7c565b820191906000526020600020905b815481529060010190602001808311610b5f57829003601f168201915b50505050509050919050565b828054610b94906111f2565b90600052602060002090601f016020900481019282610bb65760008555610bfd565b82601f10610bcf57805160ff1916838001178555610bfd565b82800160010185558215610bfd579182015b82811115610bfc578251825591602001919060010190610be1565b5b509050610c0a9190610c0e565b5090565b5b80821115610c27576000816000905550600101610c0f565b5090565b6000610c3e610c3984611139565b611108565b905082815260208101848484011115610c5657600080fd5b610c618482856111b0565b509392505050565b600082601f830112610c7a57600080fd5b8135610c8a848260208601610c2b565b91505092915050565b600081359050610ca28161130b565b92915050565b60008060008060008060c08789031215610cc157600080fd5b600087013567ffffffffffffffff811115610cdb57600080fd5b610ce789828a01610c69565b965050602087013567ffffffffffffffff811115610d0457600080fd5b610d1089828a01610c69565b955050604087013567ffffffffffffffff811115610d2d57600080fd5b610d3989828a01610c69565b9450506060610d4a89828a01610c93565b9350506080610d5b89828a01610c93565b92505060a087013567ffffffffffffffff811115610d7857600080fd5b610d8489828a01610c69565b9150509295509295509295565b600060208284031215610da357600080fd5b6000610db184828501610c93565b91505092915050565b610dc38161119a565b82525050565b6000610dd48261117e565b610dde8185611189565b9350610dee8185602086016111bf565b610df7816112fa565b840191505092915050565b60008154610e0f816111f2565b610e198186611189565b94506001821660008114610e345760018114610e4657610e79565b60ff1983168652602086019350610e79565b610e4f85611169565b60005b83811015610e7157815481890152600182019150602081019050610e52565b808801955050505b50505092915050565b6000610e8f601d83611189565b91507f546865207265636f726420697320616c72656164792064656c657465640000006000830152602082019050919050565b610ecb816111a6565b82525050565b6000602082019050610ee66000830184610dba565b92915050565b60006020820190508181036000830152610f068184610dc9565b905092915050565b60006020820190508181036000830152610f2781610e82565b9050919050565b6000602082019050610f436000830184610ec2565b92915050565b600060e082019050610f5e600083018a610ec2565b8181036020830152610f708189610dc9565b90508181036040830152610f848188610dc9565b90508181036060830152610f988187610dc9565b9050610fa76080830186610ec2565b610fb460a0830185610ec2565b81810360c0830152610fc68184610dc9565b905098975050505050505050565b600061010082019050610fea600083018b610ec2565b610ff7602083018a610ec2565b81810360408301526110098189610dc9565b9050818103606083015261101d8188610dc9565b905081810360808301526110318187610dc9565b905061104060a0830186610ec2565b61104d60c0830185610ec2565b81810360e083015261105f8184610dc9565b90509998505050505050505050565b600061010082019050611084600083018b610ec2565b611091602083018a610ec2565b81810360408301526110a38189610e02565b905081810360608301526110b78188610e02565b905081810360808301526110cb8187610e02565b90506110da60a0830186610ec2565b6110e760c0830185610ec2565b81810360e08301526110f98184610e02565b90509998505050505050505050565b6000604051905081810181811067ffffffffffffffff8211171561112f5761112e6112cb565b5b8060405250919050565b600067ffffffffffffffff821115611154576111536112cb565b5b601f19601f8301169050602081019050919050565b60008190508160005260206000209050919050565b600081519050919050565b600082825260208201905092915050565b60008115159050919050565b6000819050919050565b82818337600083830152505050565b60005b838110156111dd5780820151818401526020810190506111c2565b838111156111ec576000848401525b50505050565b6000600282049050600182168061120a57607f821691505b6020821081141561121e5761121d61129c565b5b50919050565b600061122f826111a6565b91507fffffffffffffffffffffffffffffffffffffffffffffffffffffffffffffffff8214156112625761126161126d565b5b600182019050919050565b7f4e487b7100000000000000000000000000000000000000000000000000000000600052601160045260246000fd5b7f4e487b7100000000000000000000000000000000000000000000000000000000600052602260045260246000fd5b7f4e487b7100000000000000000000000000000000000000000000000000000000600052604160045260246000fd5b6000601f19601f8301169050919050565b611314816111a6565b811461131f57600080fd5b5056fea264697066735822122019d5f4059e45d27b8635d117bcb194875e1a19855ce91ffd1e6ebc3e7f5c67b964736f6c63430008000033",
  "immutableReferences": {},
  "source": "// SPDX-License-Identifier: MIT\r\npragma solidity ^0.8.0;\r\n\r\ncontract VehicleInsuranceRecords {\r\n    uint public recordId;\r\n    mapping(uint => InsuranceRecord) records;\r\n    mapping(uint => bool) public isDeleted;\r\n\r\n    struct InsuranceRecord {\r\n        uint recordId;\r\n        uint timestamp;\r\n        string ownerName;\r\n        string licensePlate;\r\n        string vehicleType;\r\n        uint insuredAmount;\r\n        uint insuranceExpiryYear;\r\n        string claimStatus;\r\n    }\r\n\r\n    event VehicleInsuranceRecords__AddRecord(\r\n        uint recordId,\r\n        uint timestamp,\r\n        string ownerName,\r\n        string licensePlate,\r\n        string vehicleType,\r\n        uint insuredAmount,\r\n        uint insuranceExpiryYear,\r\n        string claimStatus\r\n    );\r\n\r\n    event VehicleInsuranceRecords__DeleteRecord(\r\n        uint recordId,\r\n        uint timestamp,\r\n        string ownerName,\r\n        string licensePlate,\r\n        string vehicleType,\r\n        uint insuredAmount,\r\n        uint insuranceExpiryYear,\r\n        string claimStatus\r\n    );\r\n\r\n    function addRecord(\r\n        string memory _ownerName,\r\n        string memory _licensePlate,\r\n        string memory _vehicleType,\r\n        uint _insuredAmount,\r\n        uint _insuranceExpiryYear,\r\n        string memory _claimStatus\r\n    ) public {\r\n        recordId++;\r\n        records[recordId] = InsuranceRecord(\r\n            recordId,\r\n            block.timestamp,\r\n            _ownerName,\r\n            _licensePlate,\r\n            _vehicleType,\r\n            _insuredAmount,\r\n            _insuranceExpiryYear,\r\n            _claimStatus\r\n        );\r\n\r\n        emit VehicleInsuranceRecords__AddRecord(\r\n            recordId,\r\n            block.timestamp,\r\n            _ownerName,\r\n            _licensePlate,\r\n            _vehicleType,\r\n            _insuredAmount,\r\n            _insuranceExpiryYear,\r\n            _claimStatus\r\n        );\r\n    }\r\n\r\n    function deleteRecord(uint _recordId) public {\r\n        require(!isDeleted[_recordId], \"The record is already deleted\");\r\n        InsuranceRecord storage record = records[_recordId];\r\n\r\n        emit VehicleInsuranceRecords__DeleteRecord(\r\n            record.recordId,\r\n            block.timestamp,\r\n            record.ownerName,\r\n            record.licensePlate,\r\n            record.vehicleType,\r\n            record.insuredAmount,\r\n            record.insuranceExpiryYear,\r\n            record.claimStatus\r\n        );\r\n\r\n        isDeleted[_recordId] = true;\r\n    }\r\n\r\n    function getRecord(\r\n        uint _recordId\r\n    )\r\n        public\r\n        view\r\n        returns (\r\n            uint,\r\n            string memory,\r\n            string memory,\r\n            string memory,\r\n            uint,\r\n            uint,\r\n            string memory\r\n        )\r\n    {\r\n        InsuranceRecord storage record = records[_recordId];\r\n        return (\r\n            record.timestamp,\r\n            record.ownerName,\r\n            record.licensePlate,\r\n            record.vehicleType,\r\n            record.insuredAmount,\r\n            record.insuranceExpiryYear,\r\n            record.claimStatus\r\n        );\r\n    }\r\n\r\n    function getRecordId() public view returns (uint) {\r\n        return recordId;\r\n    }\r\n\r\n    function getTimeStamp(uint _recordId) public view returns (uint) {\r\n        return records[_recordId].timestamp;\r\n    }\r\n\r\n    function getOwnerName(uint _recordId) public view returns (string memory) {\r\n        return records[_recordId].ownerName;\r\n    }\r\n\r\n    function getLicensePlate(uint _recordId) public view returns (string memory) {\r\n        return records[_recordId].licensePlate;\r\n    }\r\n\r\n    function getVehicleType(uint _recordId) public view returns (string memory) {\r\n        return records[_recordId].vehicleType;\r\n    }\r\n\r\n    function getInsuredAmount(uint _recordId) public view returns (uint) {\r\n        return records[_recordId].insuredAmount;\r\n    }\r\n\r\n    function getInsuranceExpiryYear(uint _recordId) public view returns (uint) {\r\n        return records[_recordId].insuranceExpiryYear;\r\n    }\r\n\r\n    function getClaimStatus(uint _recordId) public view returns (string memory) {\r\n        return records[_recordId].claimStatus;\r\n    }\r\n\r\n    function getDeleted(uint _recordId) public view returns (bool) {\r\n        return isDeleted[_recordId];\r\n    }\r\n}\r\n",
  "sourcePath": "C:\\Users\\Asus\\Desktop\\insurance-blockchain\\contracts\\VehicleInsuranceRecords.sol",
  "compiler": {
    "name": "solc",
    "version": "0.8.0+commit.c7dfd78e.Emscripten.clang"
  },
  "schemaVersion": "3.4.16",
  "updatedAt": "2024-12-30T05:04:34.566Z",
  "networkType": "ethereum",
  "devdoc": {
    "kind": "dev",
    "methods": {},
    "version": 1
  },
  "userdoc": {
    "kind": "user",
    "methods": {},
    "version": 1
  }
}